:020000040800F2
:10000000600C00206D0100087501000877010008F0
:10001000790100087B0100087D0100080000000054
:100020000000000000000000000000007F01000848
:10003000810100080000000083010008850100081C
:100040008701000887010008870100088701000870
:100050008701000887010008870100088701000860
:100060008701000887010008870100088701000850
:100070008701000887010008870100088701000840
:100080008701000887010008870100088701000830
:100090008701000887010008870100088701000820
:1000A0008701000887010008870100088701000810
:1000B0008701000887010008870100088701000800
:1000C00087010008870100088701000887010008F0
:1000D00087010008870100088701000887010008E0
:1000E00087010008870100088701000800F002F876
:1000F00000F02CF80AA090E8000C82448344AAF196
:100100000107DA4501D100F021F8AFF2090EBAE893
:100110000F0013F0010F18BFFB1A43F0010318473B
:1001200024020000340200000023002400250026E1
:10013000103A28BF78C1FBD8520728BF30C148BF4A
:100140000B6070471FB51FBD10B510BD00F031F832
:100150001146FFF7F7FF00F073F800F04FF803B413
:10016000FFF7F2FF03BC00F057F800000948804792
:1001700009480047FEE7FEE7FEE7FEE7FEE7FEE789
:10018000FEE7FEE7FEE7FEE704480549054A064BA1
:10019000704700003D020008ED00000860000020EC
:1001A000600C002060080020600800207047704745
:1001B0007047754600F02CF8AE4605006946534678
:1001C00020F00700854618B020B5FFF7DDFFBDE839
:1001D00020404FF000064FF000074FF000084FF0AE
:1001E000000B21F00701AC46ACE8C009ACE8C0093F
:1001F000ACE8C009ACE8C0098D46704710B50446AC
:10020000AFF300802046BDE81040FFF7A8BF000014
:10021000004870470000002001491820ABBEFEE7EF
:100220002600020070470000002000E0401C024948
:100230008842FBD37047000080841E007047000096
:100240003C48806940F004003A498861084680696A
:1002500040F0080088610846806940F0100088611D
:100260003548006820F4700033490860084600688B
:1002700040F44010086030480C30006840F0200026
:100280002D490C3108602D48006820F0F0002B4902
:1002900008600846006840F02000086027480830E1
:1002A000006840F40070254908310860244840681F
:1002B00020F07060224948600846406840F00070B5
:1002C00048600846C06840F48040C86031E01A4881
:1002D0000C30006820F0200017490C310860FFF74F
:1002E000A3FF15480C30006840F0200012490C3183
:1002F000086012480830006820F400700F49083187
:100300000860FFF791FF0D480830006840F4007066
:100310000A49083108600A48C06820F4804008494A
:10032000C860FFF781FF0648C06840F48040044978
:10033000C860CCE70010024000080140040C0140F6
:10034000001001405403000800000020600C000071
:040350002801000878
:04000005080000ED02
:00000001FF
